{
  "contractName": "Remittance",
  "abi": [
    {
      "constant": true,
      "inputs": [
        {
          "name": "",
          "type": "bytes32"
        }
      ],
      "name": "payments",
      "outputs": [
        {
          "name": "etherValue",
          "type": "uint256"
        },
        {
          "name": "puzzle",
          "type": "bytes32"
        },
        {
          "name": "creationBlock",
          "type": "uint256"
        },
        {
          "name": "paymentValidity",
          "type": "uint256"
        }
      ],
      "payable": false,
      "stateMutability": "view",
      "type": "function"
    },
    {
      "inputs": [
        {
          "name": "_contractOwner",
          "type": "address"
        }
      ],
      "payable": false,
      "stateMutability": "nonpayable",
      "type": "constructor"
    },
    {
      "anonymous": false,
      "inputs": [
        {
          "indexed": true,
          "name": "owner",
          "type": "address"
        },
        {
          "indexed": true,
          "name": "exchange",
          "type": "address"
        },
        {
          "indexed": true,
          "name": "receiver",
          "type": "address"
        },
        {
          "indexed": false,
          "name": "puzzle",
          "type": "bytes32"
        },
        {
          "indexed": false,
          "name": "value",
          "type": "uint256"
        },
        {
          "indexed": false,
          "name": "validity",
          "type": "uint256"
        }
      ],
      "name": "LogRemittance",
      "type": "event"
    },
    {
      "anonymous": false,
      "inputs": [
        {
          "indexed": true,
          "name": "owner",
          "type": "address"
        },
        {
          "indexed": true,
          "name": "exchange",
          "type": "address"
        },
        {
          "indexed": true,
          "name": "receiver",
          "type": "address"
        },
        {
          "indexed": false,
          "name": "value",
          "type": "uint256"
        }
      ],
      "name": "LogPayment",
      "type": "event"
    },
    {
      "anonymous": false,
      "inputs": [
        {
          "indexed": true,
          "name": "owner",
          "type": "address"
        }
      ],
      "name": "LogKill",
      "type": "event"
    },
    {
      "constant": false,
      "inputs": [
        {
          "name": "receiver",
          "type": "address"
        },
        {
          "name": "exchange",
          "type": "address"
        },
        {
          "name": "puzzle",
          "type": "bytes32"
        },
        {
          "name": "validity",
          "type": "uint256"
        }
      ],
      "name": "createRemittance",
      "outputs": [],
      "payable": true,
      "stateMutability": "payable",
      "type": "function"
    },
    {
      "constant": false,
      "inputs": [
        {
          "name": "paymentSource",
          "type": "address"
        },
        {
          "name": "beneficiary",
          "type": "address"
        },
        {
          "name": "exchangeOTP",
          "type": "bytes32"
        },
        {
          "name": "receiverOTP",
          "type": "bytes32"
        }
      ],
      "name": "payRemittance",
      "outputs": [],
      "payable": false,
      "stateMutability": "nonpayable",
      "type": "function"
    },
    {
      "constant": false,
      "inputs": [],
      "name": "killRemittanceContract",
      "outputs": [],
      "payable": false,
      "stateMutability": "nonpayable",
      "type": "function"
    }
  ],
  "bytecode": "0x6080604052606460005534801561001557600080fd5b5060405160208061081a8339810180604052810190808051906020019092919050505080600160006101000a81548173ffffffffffffffffffffffffffffffffffffffff021916908373ffffffffffffffffffffffffffffffffffffffff16021790555050610791806100896000396000f300608060405260043610610062576000357c0100000000000000000000000000000000000000000000000000000000900463ffffffff1680630716326d1461006757806343cc6bd3146100c95780638028aaa8146100e0578063ad948eb31461015f575b600080fd5b34801561007357600080fd5b5061009660048036038101908080356000191690602001909291905050506101cd565b60405180858152602001846000191660001916815260200183815260200182815260200194505050505060405180910390f35b3480156100d557600080fd5b506100de6101fd565b005b3480156100ec57600080fd5b5061015d600480360381019080803573ffffffffffffffffffffffffffffffffffffffff169060200190929190803573ffffffffffffffffffffffffffffffffffffffff16906020019092919080356000191690602001909291908035600019169060200190929190505050610272565b005b6101cb600480360381019080803573ffffffffffffffffffffffffffffffffffffffff169060200190929190803573ffffffffffffffffffffffffffffffffffffffff169060200190929190803560001916906020019092919080359060200190929190505050610521565b005b60026020528060005260406000206000915090508060000154908060010154908060020154908060030154905084565b600160009054906101000a900473ffffffffffffffffffffffffffffffffffffffff1673ffffffffffffffffffffffffffffffffffffffff163373ffffffffffffffffffffffffffffffffffffffff1614151561025957600080fd5b3373ffffffffffffffffffffffffffffffffffffffff16ff5b6000806000853388604051808473ffffffffffffffffffffffffffffffffffffffff1673ffffffffffffffffffffffffffffffffffffffff166c010000000000000000000000000281526014018373ffffffffffffffffffffffffffffffffffffffff1673ffffffffffffffffffffffffffffffffffffffff166c010000000000000000000000000281526014018273ffffffffffffffffffffffffffffffffffffffff1673ffffffffffffffffffffffffffffffffffffffff166c01000000000000000000000000028152601401935050505060405180910390209250848460405180836000191660001916815260200182600019166000191681526020019250505060405180910390209150816000191660026000856000191660001916815260200190815260200160002060010154600019161415156103b457600080fd5b600260008460001916600019168152602001908152602001600020600001549050600260008460001916600019168152602001908152602001600020600201544303600260008560001916600019168152602001908152602001600020600301541015151561042257600080fd5b60008111151561043157600080fd5b6000600260008560001916600019168152602001908152602001600020600001819055503373ffffffffffffffffffffffffffffffffffffffff166108fc829081150290604051600060405180830381858888f1935050505015801561049b573d6000803e3d6000fd5b508573ffffffffffffffffffffffffffffffffffffffff163373ffffffffffffffffffffffffffffffffffffffff168873ffffffffffffffffffffffffffffffffffffffff167fbe5938abafca413476d303ef5f8f44d85aed5f0fc46fbab23ae8247416dabdba846040518082815260200191505060405180910390a450505050505050565b6000848433604051808473ffffffffffffffffffffffffffffffffffffffff1673ffffffffffffffffffffffffffffffffffffffff166c010000000000000000000000000281526014018373ffffffffffffffffffffffffffffffffffffffff1673ffffffffffffffffffffffffffffffffffffffff166c010000000000000000000000000281526014018273ffffffffffffffffffffffffffffffffffffffff1673ffffffffffffffffffffffffffffffffffffffff166c0100000000000000000000000002815260140193505050506040518091039020905060006002600083600019166000191681526020019081526020016000206000015414151561062957600080fd5b4360026000836000191660001916815260200190815260200160002060020181905550600054821115151561065d57600080fd5b816002600083600019166000191681526020019081526020016000206003018190555034600260008360001916600019168152602001908152602001600020600001819055508260026000836000191660001916815260200190815260200160002060010181600019169055508473ffffffffffffffffffffffffffffffffffffffff168473ffffffffffffffffffffffffffffffffffffffff163373ffffffffffffffffffffffffffffffffffffffff167f62f65b88e74f78c337b39afb70f90f92db0a06d05add8a8a5b9c7e10e30f54fb863487604051808460001916600019168152602001838152602001828152602001935050505060405180910390a450505050505600a165627a7a723058202e83cfa4b84a9b8260c7003236c648f99a65cfb69f893e16c5aca2df5f8377f30029",
  "source": "pragma solidity ^0.4.21;\n\ncontract Remittance {\n    \n    /* Data Structure to store individual payment requests */\n    struct Payment {\n    uint etherValue;\n    bytes32 puzzle;\n    uint  creationBlock;\n    uint paymentValidity;\n   }\n   \n   uint maxValidity = 100;\n   address contractOwner;\n   mapping(bytes32=>Payment) public payments;\n   \n   /* Events */ \n   event LogRemittance(address indexed owner,address indexed exchange, address indexed receiver, bytes32 puzzle,uint value,uint validity);\n   event LogPayment(address indexed owner,address indexed exchange,address indexed receiver, uint value);\n   event LogKill(address indexed owner);\n   \n   /* Modifiers */\n   modifier onlyOwner {\n       require(msg.sender == contractOwner);\n       _;\n   }\n  \n  /* Constructor - Storing the Contract Owner details. Only Contract Owner can kill this contract */\n  constructor(address _contractOwner) public {\n      contractOwner = _contractOwner;\n  } \n   \n  /* createRemittance - Anyone can create new Remittance request. msg.sender will be the payer. \n      @params : receiver - Payee who will receive the payment. \n                exchange - Exchange through which payee is getting paid.\n                puzzle   - A puzzle which exchange and payee should resolve to open this payment\n                validity - defines for how many blocks (from current block) will the payment be available\n  */ \n  function createRemittance(address receiver, address exchange, bytes32 puzzle, uint validity) public payable{\n        bytes32 paymentHash  = keccak256(receiver,exchange,msg.sender);\n        require((payments[paymentHash].etherValue) == 0);\n        payments[paymentHash].creationBlock = block.number;\n        require(validity <= maxValidity);\n        payments[paymentHash].paymentValidity= validity;\n        payments[paymentHash].etherValue = msg.value;\n        payments[paymentHash].puzzle = puzzle;\n        emit LogRemittance(msg.sender,exchange,receiver,puzzle, msg.value,validity);\n    }\n    \n  /* payRemittance - Exchange will pass on their OTP along with the payee's OTP to reeive a payment. \n     @params : paymentSource - Payer for this payment. \n               beneficiary   -  Payee for this payment.\n               exchangeOTP   - OTP received by the exchange.\n               receiverOTP   - OTP received by the payee.\n  */ \n  function payRemittance (address paymentSource,address beneficiary, bytes32 exchangeOTP, bytes32 receiverOTP) public{\n        bytes32 paymentHash = keccak256(beneficiary,msg.sender,paymentSource);\n        bytes32 passCode = keccak256(exchangeOTP,receiverOTP);\n        require(payments[paymentHash].puzzle == passCode);\n        uint etherAvailable = payments[paymentHash].etherValue;\n        require(payments[paymentHash].paymentValidity >= (block.number - payments[paymentHash].creationBlock));\n        require(etherAvailable > 0);\n        payments[paymentHash].etherValue = 0;\n        msg.sender.transfer(etherAvailable);\n        emit LogPayment(paymentSource,msg.sender,beneficiary,etherAvailable);\n  }\n    \n  /* killRemittanceContract - Contract Owner can invoke this function to destroy the contract. */\n  function killRemittanceContract() public onlyOwner{\n        selfdestruct(msg.sender);\n  }    \n  \n}\n",
  "sourcePath": "/home/naveen/Documents/repos/Remittance/contracts/Remittance.sol",
  "compiler": {
    "name": "solc",
    "version": "0.4.24+commit.e67f0147.Emscripten.clang"
  },
  "schemaVersion": "2.0.1",
  "updatedAt": "2018-07-05T04:06:33.191Z"
}